{
  "contractName": "Ballot",
  "abi": [
    {
      "inputs": [],
      "stateMutability": "nonpayable",
      "type": "constructor"
    },
    {
      "inputs": [],
      "name": "chairperson",
      "outputs": [
        {
          "internalType": "address",
          "name": "",
          "type": "address"
        }
      ],
      "stateMutability": "view",
      "type": "function",
      "constant": true
    },
    {
      "inputs": [],
      "name": "finalData",
      "outputs": [
        {
          "internalType": "string",
          "name": "proposalId",
          "type": "string"
        },
        {
          "internalType": "string",
          "name": "candidateName",
          "type": "string"
        },
        {
          "internalType": "string",
          "name": "proposalFile",
          "type": "string"
        },
        {
          "internalType": "uint256",
          "name": "yesCount",
          "type": "uint256"
        },
        {
          "internalType": "uint256",
          "name": "noCount",
          "type": "uint256"
        }
      ],
      "stateMutability": "view",
      "type": "function",
      "constant": true
    },
    {
      "inputs": [
        {
          "internalType": "uint256",
          "name": "",
          "type": "uint256"
        }
      ],
      "name": "proposals",
      "outputs": [
        {
          "internalType": "string",
          "name": "name",
          "type": "string"
        },
        {
          "internalType": "uint256",
          "name": "voteCount",
          "type": "uint256"
        }
      ],
      "stateMutability": "view",
      "type": "function",
      "constant": true
    },
    {
      "inputs": [
        {
          "internalType": "address",
          "name": "",
          "type": "address"
        }
      ],
      "name": "voters",
      "outputs": [
        {
          "internalType": "uint256",
          "name": "weight",
          "type": "uint256"
        },
        {
          "internalType": "bool",
          "name": "voted",
          "type": "bool"
        },
        {
          "internalType": "uint256",
          "name": "vote",
          "type": "uint256"
        }
      ],
      "stateMutability": "view",
      "type": "function",
      "constant": true
    },
    {
      "inputs": [
        {
          "internalType": "string",
          "name": "proposalId",
          "type": "string"
        },
        {
          "internalType": "string",
          "name": "proposalName",
          "type": "string"
        },
        {
          "internalType": "string",
          "name": "proposalFile",
          "type": "string"
        }
      ],
      "name": "addProposal",
      "outputs": [],
      "stateMutability": "nonpayable",
      "type": "function"
    },
    {
      "inputs": [
        {
          "internalType": "string",
          "name": "id",
          "type": "string"
        }
      ],
      "name": "getData",
      "outputs": [
        {
          "components": [
            {
              "internalType": "string",
              "name": "proposalId",
              "type": "string"
            },
            {
              "internalType": "string",
              "name": "candidateName",
              "type": "string"
            },
            {
              "internalType": "string",
              "name": "proposalFile",
              "type": "string"
            },
            {
              "internalType": "uint256",
              "name": "yesCount",
              "type": "uint256"
            },
            {
              "internalType": "uint256",
              "name": "noCount",
              "type": "uint256"
            }
          ],
          "internalType": "struct Ballot.FinalData",
          "name": "someData",
          "type": "tuple"
        }
      ],
      "stateMutability": "view",
      "type": "function",
      "constant": true
    },
    {
      "inputs": [
        {
          "internalType": "address",
          "name": "voter",
          "type": "address"
        }
      ],
      "name": "giveRightToVote",
      "outputs": [],
      "stateMutability": "nonpayable",
      "type": "function"
    },
    {
      "inputs": [
        {
          "internalType": "uint256",
          "name": "proposal",
          "type": "uint256"
        },
        {
          "internalType": "string",
          "name": "id",
          "type": "string"
        }
      ],
      "name": "vote",
      "outputs": [],
      "stateMutability": "nonpayable",
      "type": "function"
    },
    {
      "inputs": [],
      "name": "winningProposal",
      "outputs": [
        {
          "internalType": "uint256",
          "name": "winningProposal_",
          "type": "uint256"
        }
      ],
      "stateMutability": "view",
      "type": "function",
      "constant": true
    },
    {
      "inputs": [],
      "name": "winnerName",
      "outputs": [
        {
          "internalType": "string",
          "name": "winnerName_",
          "type": "string"
        }
      ],
      "stateMutability": "view",
      "type": "function",
      "constant": true
    }
  ],
  "bytecode": "0x608060405234801561001057600080fd5b50611c6d806100206000396000f3fe608060405234801561001057600080fd5b506004361061009e5760003560e01c8063a3ec138d11610066578063a3ec138d14610148578063a8e159901461017a578063ae55c88814610196578063df59f1d8146101c6578063e2ba53f0146101e85761009e565b8063013cf08b146100a357806324108475146100d45780632e4176cf146100f0578063609ff1bd1461010e5780639e7b8d611461012c575b600080fd5b6100bd60048036038101906100b89190611213565b610206565b6040516100cb9291906112e8565b60405180910390f35b6100ee60048036038101906100e9919061144d565b6102c2565b005b6100f86105a5565b60405161010591906114ea565b60405180910390f35b6101166105cb565b6040516101239190611505565b60405180910390f35b6101466004803603810190610141919061154c565b610653565b005b610162600480360381019061015d919061154c565b61080d565b60405161017193929190611594565b60405180910390f35b610194600480360381019061018f91906115cb565b610844565b005b6101b060048036038101906101ab9190611672565b610bf0565b6040516101bd9190611798565b60405180910390f35b6101ce610df2565b6040516101df9594939291906117ba565b60405180910390f35b6101f0610fae565b6040516101fd9190611822565b60405180910390f35b6008818154811061021657600080fd5b906000526020600020906002020160009150905080600001805461023990611873565b80601f016020809104026020016040519081016040528092919081815260200182805461026590611873565b80156102b25780601f10610287576101008083540402835291602001916102b2565b820191906000526020600020905b81548152906001019060200180831161029557829003601f168201915b5050505050908060010154905082565b6000600760003373ffffffffffffffffffffffffffffffffffffffff1673ffffffffffffffffffffffffffffffffffffffff168152602001908152602001600020905060008160000154141561034d576040517f08c379a0000000000000000000000000000000000000000000000000000000008152600401610344906118f1565b60405180910390fd5b8060010160009054906101000a900460ff161561039f576040517f08c379a00000000000000000000000000000000000000000000000000000000081526004016103969061195d565b60405180910390fd5b60018160010160006101000a81548160ff0219169083151502179055508281600201819055508060000154600884815481106103de576103dd61197d565b5b906000526020600020906002020160010160008282546103fe91906119db565b9250508190555060008314156104d957600883815481106104225761042161197d565b5b906000526020600020906002020160010154600060030181905550600060058360405161044f9190611a6d565b9081526020016040518091039020600082018160000190805461047190611873565b61047c92919061106a565b50600182018160010190805461049190611873565b61049c92919061106a565b5060028201816002019080546104b190611873565b6104bc92919061106a565b5060038201548160030155600482015481600401559050506105a0565b600883815481106104ed576104ec61197d565b5b906000526020600020906002020160010154600060040181905550600060058360405161051a9190611a6d565b9081526020016040518091039020600082018160000190805461053c90611873565b61054792919061106a565b50600182018160010190805461055c90611873565b61056792919061106a565b50600282018160020190805461057c90611873565b61058792919061106a565b5060038201548160030155600482015481600401559050505b505050565b600660009054906101000a900473ffffffffffffffffffffffffffffffffffffffff1681565b6000806000905060005b60088054905081101561064e5781600882815481106105f7576105f661197d565b5b906000526020600020906002020160010154111561063b57600881815481106106235761062261197d565b5b90600052602060002090600202016001015491508092505b808061064690611a84565b9150506105d5565b505090565b600660009054906101000a900473ffffffffffffffffffffffffffffffffffffffff1673ffffffffffffffffffffffffffffffffffffffff163373ffffffffffffffffffffffffffffffffffffffff16146106e3576040517f08c379a00000000000000000000000000000000000000000000000000000000081526004016106da90611b3f565b60405180910390fd5b600760008273ffffffffffffffffffffffffffffffffffffffff1673ffffffffffffffffffffffffffffffffffffffff16815260200190815260200160002060010160009054906101000a900460ff1615610773576040517f08c379a000000000000000000000000000000000000000000000000000000000815260040161076a90611bab565b60405180910390fd5b6000600760008373ffffffffffffffffffffffffffffffffffffffff1673ffffffffffffffffffffffffffffffffffffffff16815260200190815260200160002060000154146107c257600080fd5b6001600760008373ffffffffffffffffffffffffffffffffffffffff1673ffffffffffffffffffffffffffffffffffffffff1681526020019081526020016000206000018190555050565b60076020528060005260406000206000915090508060000154908060010160009054906101000a900460ff16908060020154905083565b600082511415610889576040517f08c379a000000000000000000000000000000000000000000000000000000000815260040161088090611c17565b60405180910390fd5b33600660006101000a81548173ffffffffffffffffffffffffffffffffffffffff021916908373ffffffffffffffffffffffffffffffffffffffff160217905550600160076000600660009054906101000a900473ffffffffffffffffffffffffffffffffffffffff1673ffffffffffffffffffffffffffffffffffffffff1673ffffffffffffffffffffffffffffffffffffffff16815260200190815260200160002060000181905550600860405180604001604052806040518060400160405280600381526020017f596573000000000000000000000000000000000000000000000000000000000081525081526020016000815250908060018154018082558091505060019003906000526020600020906002020160009091909190915060008201518160000190805190602001906109c69291906110f7565b50602082015181600101555050600860405180604001604052806040518060400160405280600281526020017f4e6f0000000000000000000000000000000000000000000000000000000000008152508152602001600081525090806001815401808255809150506001900390600052602060002090600202016000909190919091506000820151816000019080519060200190610a659291906110f7565b506020820151816001015550506040518060a001604052808481526020018381526020018281526020016008600081548110610aa457610aa361197d565b5b90600052602060002090600202016001015481526020016008600181548110610ad057610acf61197d565b5b906000526020600020906002020160010154815250600080820151816000019080519060200190610b029291906110f7565b506020820151816001019080519060200190610b1f9291906110f7565b506040820151816002019080519060200190610b3c9291906110f7565b5060608201518160030155608082015181600401559050506000600584604051610b669190611a6d565b90815260200160405180910390206000820181600001908054610b8890611873565b610b9392919061106a565b506001820181600101908054610ba890611873565b610bb392919061106a565b506002820181600201908054610bc890611873565b610bd392919061106a565b506003820154816003015560048201548160040155905050505050565b610bf861117d565b600582604051610c089190611a6d565b90815260200160405180910390206040518060a0016040529081600082018054610c3190611873565b80601f0160208091040260200160405190810160405280929190818152602001828054610c5d90611873565b8015610caa5780601f10610c7f57610100808354040283529160200191610caa565b820191906000526020600020905b815481529060010190602001808311610c8d57829003601f168201915b50505050508152602001600182018054610cc390611873565b80601f0160208091040260200160405190810160405280929190818152602001828054610cef90611873565b8015610d3c5780601f10610d1157610100808354040283529160200191610d3c565b820191906000526020600020905b815481529060010190602001808311610d1f57829003601f168201915b50505050508152602001600282018054610d5590611873565b80601f0160208091040260200160405190810160405280929190818152602001828054610d8190611873565b8015610dce5780601f10610da357610100808354040283529160200191610dce565b820191906000526020600020905b815481529060010190602001808311610db157829003601f168201915b50505050508152602001600382015481526020016004820154815250509050919050565b6000806000018054610e0390611873565b80601f0160208091040260200160405190810160405280929190818152602001828054610e2f90611873565b8015610e7c5780601f10610e5157610100808354040283529160200191610e7c565b820191906000526020600020905b815481529060010190602001808311610e5f57829003601f168201915b505050505090806001018054610e9190611873565b80601f0160208091040260200160405190810160405280929190818152602001828054610ebd90611873565b8015610f0a5780601f10610edf57610100808354040283529160200191610f0a565b820191906000526020600020905b815481529060010190602001808311610eed57829003601f168201915b505050505090806002018054610f1f90611873565b80601f0160208091040260200160405190810160405280929190818152602001828054610f4b90611873565b8015610f985780601f10610f6d57610100808354040283529160200191610f98565b820191906000526020600020905b815481529060010190602001808311610f7b57829003601f168201915b5050505050908060030154908060040154905085565b60606008610fba6105cb565b81548110610fcb57610fca61197d565b5b90600052602060002090600202016000018054610fe790611873565b80601f016020809104026020016040519081016040528092919081815260200182805461101390611873565b80156110605780601f1061103557610100808354040283529160200191611060565b820191906000526020600020905b81548152906001019060200180831161104357829003601f168201915b5050505050905090565b82805461107690611873565b90600052602060002090601f01602090048101928261109857600085556110e6565b82601f106110a957805485556110e6565b828001600101855582156110e657600052602060002091601f016020900482015b828111156110e55782548255916001019190600101906110ca565b5b5090506110f391906111ac565b5090565b82805461110390611873565b90600052602060002090601f016020900481019282611125576000855561116c565b82601f1061113e57805160ff191683800117855561116c565b8280016001018555821561116c579182015b8281111561116b578251825591602001919060010190611150565b5b50905061117991906111ac565b5090565b6040518060a0016040528060608152602001606081526020016060815260200160008152602001600081525090565b5b808211156111c55760008160009055506001016111ad565b5090565b6000604051905090565b600080fd5b600080fd5b6000819050919050565b6111f0816111dd565b81146111fb57600080fd5b50565b60008135905061120d816111e7565b92915050565b600060208284031215611229576112286111d3565b5b6000611237848285016111fe565b91505092915050565b600081519050919050565b600082825260208201905092915050565b60005b8381101561127a57808201518184015260208101905061125f565b83811115611289576000848401525b50505050565b6000601f19601f8301169050919050565b60006112ab82611240565b6112b5818561124b565b93506112c581856020860161125c565b6112ce8161128f565b840191505092915050565b6112e2816111dd565b82525050565b6000604082019050818103600083015261130281856112a0565b905061131160208301846112d9565b9392505050565b600080fd5b600080fd5b7f4e487b7100000000000000000000000000000000000000000000000000000000600052604160045260246000fd5b61135a8261128f565b810181811067ffffffffffffffff8211171561137957611378611322565b5b80604052505050565b600061138c6111c9565b90506113988282611351565b919050565b600067ffffffffffffffff8211156113b8576113b7611322565b5b6113c18261128f565b9050602081019050919050565b82818337600083830152505050565b60006113f06113eb8461139d565b611382565b90508281526020810184848401111561140c5761140b61131d565b5b6114178482856113ce565b509392505050565b600082601f83011261143457611433611318565b5b81356114448482602086016113dd565b91505092915050565b60008060408385031215611464576114636111d3565b5b6000611472858286016111fe565b925050602083013567ffffffffffffffff811115611493576114926111d8565b5b61149f8582860161141f565b9150509250929050565b600073ffffffffffffffffffffffffffffffffffffffff82169050919050565b60006114d4826114a9565b9050919050565b6114e4816114c9565b82525050565b60006020820190506114ff60008301846114db565b92915050565b600060208201905061151a60008301846112d9565b92915050565b611529816114c9565b811461153457600080fd5b50565b60008135905061154681611520565b92915050565b600060208284031215611562576115616111d3565b5b600061157084828501611537565b91505092915050565b60008115159050919050565b61158e81611579565b82525050565b60006060820190506115a960008301866112d9565b6115b66020830185611585565b6115c360408301846112d9565b949350505050565b6000806000606084860312156115e4576115e36111d3565b5b600084013567ffffffffffffffff811115611602576116016111d8565b5b61160e8682870161141f565b935050602084013567ffffffffffffffff81111561162f5761162e6111d8565b5b61163b8682870161141f565b925050604084013567ffffffffffffffff81111561165c5761165b6111d8565b5b6116688682870161141f565b9150509250925092565b600060208284031215611688576116876111d3565b5b600082013567ffffffffffffffff8111156116a6576116a56111d8565b5b6116b28482850161141f565b91505092915050565b600082825260208201905092915050565b60006116d782611240565b6116e181856116bb565b93506116f181856020860161125c565b6116fa8161128f565b840191505092915050565b61170e816111dd565b82525050565b600060a083016000830151848203600086015261173182826116cc565b9150506020830151848203602086015261174b82826116cc565b9150506040830151848203604086015261176582826116cc565b915050606083015161177a6060860182611705565b50608083015161178d6080860182611705565b508091505092915050565b600060208201905081810360008301526117b28184611714565b905092915050565b600060a08201905081810360008301526117d481886112a0565b905081810360208301526117e881876112a0565b905081810360408301526117fc81866112a0565b905061180b60608301856112d9565b61181860808301846112d9565b9695505050505050565b6000602082019050818103600083015261183c81846112a0565b905092915050565b7f4e487b7100000000000000000000000000000000000000000000000000000000600052602260045260246000fd5b6000600282049050600182168061188b57607f821691505b6020821081141561189f5761189e611844565b5b50919050565b7f486173206e6f20726967687420746f20766f7465000000000000000000000000600082015250565b60006118db60148361124b565b91506118e6826118a5565b602082019050919050565b6000602082019050818103600083015261190a816118ce565b9050919050565b7f416c726561647920766f7465642e000000000000000000000000000000000000600082015250565b6000611947600e8361124b565b915061195282611911565b602082019050919050565b600060208201905081810360008301526119768161193a565b9050919050565b7f4e487b7100000000000000000000000000000000000000000000000000000000600052603260045260246000fd5b7f4e487b7100000000000000000000000000000000000000000000000000000000600052601160045260246000fd5b60006119e6826111dd565b91506119f1836111dd565b9250827fffffffffffffffffffffffffffffffffffffffffffffffffffffffffffffffff03821115611a2657611a256119ac565b5b828201905092915050565b600081905092915050565b6000611a4782611240565b611a518185611a31565b9350611a6181856020860161125c565b80840191505092915050565b6000611a798284611a3c565b915081905092915050565b6000611a8f826111dd565b91507fffffffffffffffffffffffffffffffffffffffffffffffffffffffffffffffff821415611ac257611ac16119ac565b5b600182019050919050565b7f4f6e6c79206368616972706572736f6e2063616e20676976652072696768742060008201527f746f20766f74652e000000000000000000000000000000000000000000000000602082015250565b6000611b2960288361124b565b9150611b3482611acd565b604082019050919050565b60006020820190508181036000830152611b5881611b1c565b9050919050565b7f54686520766f74657220616c726561647920766f7465642e0000000000000000600082015250565b6000611b9560188361124b565b9150611ba082611b5f565b602082019050919050565b60006020820190508181036000830152611bc481611b88565b9050919050565b7f4769766520612064616d6e206e616d6500000000000000000000000000000000600082015250565b6000611c0160108361124b565b9150611c0c82611bcb565b602082019050919050565b60006020820190508181036000830152611c3081611bf4565b905091905056fea264697066735822122082003a49ac971a815d4c8898b11fd4e9060a5bb9cdf0baef0cc71396b97a76fd64736f6c634300080b0033",
  "immutableReferences": {},
  "source": "// SPDX-License-Identifier: GPL-3.0\r\n\r\npragma solidity >=0.7.0 <0.9.0;\r\n\r\n  \r\ncontract Ballot {\r\n   \r\n    struct Voter {\r\n        uint weight; \r\n        bool voted;  \r\n        uint vote;   \r\n    }\r\n    \r\n    struct Proposal {\r\n        \r\n        string name;   \r\n        uint voteCount; \r\n    }\r\n\r\n    struct FinalData{\r\n        string proposalId;\r\n        string candidateName;\r\n        string proposalFile;\r\n        uint yesCount;\r\n        uint noCount;\r\n    }\r\n\r\n\r\n    FinalData public finalData;\r\n\r\n    mapping(string => FinalData) data;\r\n\r\n    address public chairperson;\r\n\r\n    mapping(address => Voter) public voters;\r\n\r\n    Proposal[] public proposals;\r\n\r\n    \r\n    constructor() {\r\n        \r\n    }\r\n\r\n    function addProposal(string memory proposalId, string memory proposalName, string memory proposalFile) public {\r\n        require(bytes(proposalName).length != 0 , \"Give a damn name\");\r\n        chairperson = msg.sender;\r\n        voters[chairperson].weight = 1;\r\n        proposals.push(Proposal({name: \"Yes\",voteCount: 0}));\r\n        proposals.push(Proposal({name: \"No\",voteCount: 0}));\r\n        finalData = FinalData(proposalId, proposalName,proposalFile, proposals[0].voteCount, proposals[1].voteCount);\r\n        data[proposalId] = finalData;\r\n    }\r\n\r\n    function getData(string memory id) public view returns (FinalData memory someData){\r\n        someData = data[id];\r\n    }\r\n    \r\n    \r\n    function giveRightToVote(address voter) public {\r\n        require(\r\n            msg.sender == chairperson,\r\n            \"Only chairperson can give right to vote.\"\r\n        );\r\n        require(\r\n            !voters[voter].voted,\r\n            \"The voter already voted.\"\r\n        );\r\n        require(voters[voter].weight == 0);\r\n        voters[voter].weight = 1;\r\n    }\r\n\r\n   \r\n\r\n    \r\n    function vote(uint proposal, string memory id) public {\r\n        Voter storage sender = voters[msg.sender];\r\n        require(sender.weight != 0, \"Has no right to vote\");\r\n        require(!sender.voted, \"Already voted.\");\r\n        sender.voted = true;\r\n        sender.vote = proposal;\r\n\r\n        \r\n        proposals[proposal].voteCount += sender.weight;\r\n        if(proposal == 0){\r\n        finalData.yesCount = proposals[proposal].voteCount;\r\n        data[id] = finalData;\r\n        }else{\r\n            finalData.noCount = proposals[proposal].voteCount;\r\n            data[id] = finalData;\r\n        } \r\n    }\r\n\r\n    \r\n    function winningProposal() public view\r\n            returns (uint winningProposal_)\r\n    {\r\n        uint winningVoteCount = 0;\r\n        for (uint p = 0; p < proposals.length; p++) {\r\n            if (proposals[p].voteCount > winningVoteCount) {\r\n                winningVoteCount = proposals[p].voteCount;\r\n                winningProposal_ = p;\r\n            }\r\n        }\r\n    }\r\n\r\n    \r\n    function winnerName() public view\r\n            returns (string memory winnerName_)\r\n    {\r\n        winnerName_ = proposals[winningProposal()].name;\r\n    }\r\n}\r\n",
  "sourcePath": "C:\\Users\\colin\\OneDrive\\Desktop\\projects\\mini_project_sem3\\frontend2\\market3\\src\\contracts\\Ballot.sol",
  "compiler": {
    "name": "solc",
    "version": "0.8.11+commit.d7f03943.Emscripten.clang"
  },
  "schemaVersion": "3.4.4",
  "updatedAt": "2022-04-04T08:45:14.771Z",
  "networkType": "ethereum",
  "devdoc": {
    "kind": "dev",
    "methods": {},
    "version": 1
  },
  "userdoc": {
    "kind": "user",
    "methods": {},
    "version": 1
  }
}