{
  "contractName": "Ballot",
  "abi": [
    {
      "inputs": [],
      "stateMutability": "nonpayable",
      "type": "constructor"
    },
    {
      "inputs": [],
      "name": "chairperson",
      "outputs": [
        {
          "internalType": "address",
          "name": "",
          "type": "address"
        }
      ],
      "stateMutability": "view",
      "type": "function",
      "constant": true
    },
    {
      "inputs": [],
      "name": "finalData",
      "outputs": [
        {
          "internalType": "string",
          "name": "proposalId",
          "type": "string"
        },
        {
          "internalType": "string",
          "name": "candidateName",
          "type": "string"
        },
        {
          "internalType": "string",
          "name": "proposalFile",
          "type": "string"
        },
        {
          "internalType": "uint256",
          "name": "yesCount",
          "type": "uint256"
        },
        {
          "internalType": "uint256",
          "name": "noCount",
          "type": "uint256"
        }
      ],
      "stateMutability": "view",
      "type": "function",
      "constant": true
    },
    {
      "inputs": [
        {
          "internalType": "uint256",
          "name": "",
          "type": "uint256"
        }
      ],
      "name": "proposals",
      "outputs": [
        {
          "internalType": "string",
          "name": "name",
          "type": "string"
        },
        {
          "internalType": "uint256",
          "name": "voteCount",
          "type": "uint256"
        }
      ],
      "stateMutability": "view",
      "type": "function",
      "constant": true
    },
    {
      "inputs": [
        {
          "internalType": "address",
          "name": "",
          "type": "address"
        }
      ],
      "name": "voters",
      "outputs": [
        {
          "internalType": "uint256",
          "name": "weight",
          "type": "uint256"
        },
        {
          "internalType": "bool",
          "name": "voted",
          "type": "bool"
        },
        {
          "internalType": "uint256",
          "name": "vote",
          "type": "uint256"
        }
      ],
      "stateMutability": "view",
      "type": "function",
      "constant": true
    },
    {
      "inputs": [
        {
          "internalType": "string",
          "name": "proposalId",
          "type": "string"
        },
        {
          "internalType": "string",
          "name": "proposalName",
          "type": "string"
        },
        {
          "internalType": "string",
          "name": "proposalFile",
          "type": "string"
        }
      ],
      "name": "addProposal",
      "outputs": [],
      "stateMutability": "nonpayable",
      "type": "function"
    },
    {
      "inputs": [
        {
          "internalType": "string",
          "name": "id",
          "type": "string"
        }
      ],
      "name": "getData",
      "outputs": [
        {
          "components": [
            {
              "internalType": "string",
              "name": "proposalId",
              "type": "string"
            },
            {
              "internalType": "string",
              "name": "candidateName",
              "type": "string"
            },
            {
              "internalType": "string",
              "name": "proposalFile",
              "type": "string"
            },
            {
              "internalType": "uint256",
              "name": "yesCount",
              "type": "uint256"
            },
            {
              "internalType": "uint256",
              "name": "noCount",
              "type": "uint256"
            }
          ],
          "internalType": "struct Ballot.FinalData",
          "name": "someData",
          "type": "tuple"
        }
      ],
      "stateMutability": "view",
      "type": "function",
      "constant": true
    },
    {
      "inputs": [
        {
          "internalType": "address",
          "name": "voter",
          "type": "address"
        }
      ],
      "name": "giveRightToVote",
      "outputs": [],
      "stateMutability": "nonpayable",
      "type": "function"
    },
    {
      "inputs": [
        {
          "internalType": "uint256",
          "name": "proposal",
          "type": "uint256"
        },
        {
          "internalType": "string",
          "name": "id",
          "type": "string"
        }
      ],
      "name": "vote",
      "outputs": [],
      "stateMutability": "nonpayable",
      "type": "function"
    },
    {
      "inputs": [],
      "name": "winningProposal",
      "outputs": [
        {
          "internalType": "uint256",
          "name": "winningProposal_",
          "type": "uint256"
        }
      ],
      "stateMutability": "view",
      "type": "function",
      "constant": true
    },
    {
      "inputs": [],
      "name": "voteResult",
      "outputs": [
        {
          "internalType": "uint256",
          "name": "winningProposal_",
          "type": "uint256"
        }
      ],
      "stateMutability": "view",
      "type": "function",
      "constant": true
    },
    {
      "inputs": [
        {
          "internalType": "string",
          "name": "id",
          "type": "string"
        }
      ],
      "name": "voteResults",
      "outputs": [
        {
          "internalType": "bool",
          "name": "result",
          "type": "bool"
        }
      ],
      "stateMutability": "view",
      "type": "function",
      "constant": true
    },
    {
      "inputs": [],
      "name": "winnerName",
      "outputs": [
        {
          "internalType": "string",
          "name": "winnerName_",
          "type": "string"
        }
      ],
      "stateMutability": "view",
      "type": "function",
      "constant": true
    }
  ],
  "bytecode": "0x608060405234801561001057600080fd5b50611dd2806100206000396000f3fe608060405234801561001057600080fd5b50600436106100b35760003560e01c80639e7b8d61116100715780639e7b8d611461018f578063a3ec138d146101ab578063a8e15990146101dd578063ae55c888146101f9578063df59f1d814610229578063e2ba53f01461024b576100b3565b80623259ea146100b8578063013cf08b146100d657806324108475146101075780632e4176cf146101235780635196801214610141578063609ff1bd14610171575b600080fd5b6100c0610269565b6040516100cd919061132c565b60405180910390f35b6100f060048036038101906100eb9190611387565b6102f1565b6040516100fe92919061144d565b60405180910390f35b610121600480360381019061011c91906115b2565b6103ad565b005b61012b610690565b604051610138919061164f565b60405180910390f35b61015b6004803603810190610156919061166a565b6106b6565b60405161016891906116ce565b60405180910390f35b610179610715565b604051610186919061132c565b60405180910390f35b6101a960048036038101906101a49190611715565b61079d565b005b6101c560048036038101906101c09190611715565b610957565b6040516101d493929190611742565b60405180910390f35b6101f760048036038101906101f29190611779565b61098e565b005b610213600480360381019061020e919061166a565b610d3a565b60405161022091906118fd565b60405180910390f35b610231610f3c565b60405161024295949392919061191f565b60405180910390f35b6102536110f8565b6040516102609190611987565b60405180910390f35b6000806000905060005b6008805490508110156102ec578160088281548110610295576102946119a9565b5b90600052602060002090600202016001015411156102d957600881815481106102c1576102c06119a9565b5b90600052602060002090600202016001015491508092505b80806102e490611a07565b915050610273565b505090565b6008818154811061030157600080fd5b906000526020600020906002020160009150905080600001805461032490611a7f565b80601f016020809104026020016040519081016040528092919081815260200182805461035090611a7f565b801561039d5780601f106103725761010080835404028352916020019161039d565b820191906000526020600020905b81548152906001019060200180831161038057829003601f168201915b5050505050908060010154905082565b6000600760003373ffffffffffffffffffffffffffffffffffffffff1673ffffffffffffffffffffffffffffffffffffffff1681526020019081526020016000209050600081600001541415610438576040517f08c379a000000000000000000000000000000000000000000000000000000000815260040161042f90611afd565b60405180910390fd5b8060010160009054906101000a900460ff161561048a576040517f08c379a000000000000000000000000000000000000000000000000000000000815260040161048190611b69565b60405180910390fd5b60018160010160006101000a81548160ff0219169083151502179055508281600201819055508060000154600884815481106104c9576104c86119a9565b5b906000526020600020906002020160010160008282546104e99190611b89565b9250508190555060008314156105c4576008838154811061050d5761050c6119a9565b5b906000526020600020906002020160010154600060030181905550600060058360405161053a9190611c1b565b9081526020016040518091039020600082018160000190805461055c90611a7f565b6105679291906111b4565b50600182018160010190805461057c90611a7f565b6105879291906111b4565b50600282018160020190805461059c90611a7f565b6105a79291906111b4565b50600382015481600301556004820154816004015590505061068b565b600883815481106105d8576105d76119a9565b5b90600052602060002090600202016001015460006004018190555060006005836040516106059190611c1b565b9081526020016040518091039020600082018160000190805461062790611a7f565b6106329291906111b4565b50600182018160010190805461064790611a7f565b6106529291906111b4565b50600282018160020190805461066790611a7f565b6106729291906111b4565b5060038201548160030155600482015481600401559050505b505050565b600660009054906101000a900473ffffffffffffffffffffffffffffffffffffffff1681565b60006005826040516106c89190611c1b565b9081526020016040518091039020600401546005836040516106ea9190611c1b565b908152602001604051809103902060030154111561070b5760019050610710565b600090505b919050565b6000806000905060005b600880549050811015610798578160088281548110610741576107406119a9565b5b9060005260206000209060020201600101541115610785576008818154811061076d5761076c6119a9565b5b90600052602060002090600202016001015491508092505b808061079090611a07565b91505061071f565b505090565b600660009054906101000a900473ffffffffffffffffffffffffffffffffffffffff1673ffffffffffffffffffffffffffffffffffffffff163373ffffffffffffffffffffffffffffffffffffffff161461082d576040517f08c379a000000000000000000000000000000000000000000000000000000000815260040161082490611ca4565b60405180910390fd5b600760008273ffffffffffffffffffffffffffffffffffffffff1673ffffffffffffffffffffffffffffffffffffffff16815260200190815260200160002060010160009054906101000a900460ff16156108bd576040517f08c379a00000000000000000000000000000000000000000000000000000000081526004016108b490611d10565b60405180910390fd5b6000600760008373ffffffffffffffffffffffffffffffffffffffff1673ffffffffffffffffffffffffffffffffffffffff168152602001908152602001600020600001541461090c57600080fd5b6001600760008373ffffffffffffffffffffffffffffffffffffffff1673ffffffffffffffffffffffffffffffffffffffff1681526020019081526020016000206000018190555050565b60076020528060005260406000206000915090508060000154908060010160009054906101000a900460ff16908060020154905083565b6000825114156109d3576040517f08c379a00000000000000000000000000000000000000000000000000000000081526004016109ca90611d7c565b60405180910390fd5b33600660006101000a81548173ffffffffffffffffffffffffffffffffffffffff021916908373ffffffffffffffffffffffffffffffffffffffff160217905550600160076000600660009054906101000a900473ffffffffffffffffffffffffffffffffffffffff1673ffffffffffffffffffffffffffffffffffffffff1673ffffffffffffffffffffffffffffffffffffffff16815260200190815260200160002060000181905550600860405180604001604052806040518060400160405280600381526020017f59657300000000000000000000000000000000000000000000000000000000008152508152602001600081525090806001815401808255809150506001900390600052602060002090600202016000909190919091506000820151816000019080519060200190610b10929190611241565b50602082015181600101555050600860405180604001604052806040518060400160405280600281526020017f4e6f0000000000000000000000000000000000000000000000000000000000008152508152602001600081525090806001815401808255809150506001900390600052602060002090600202016000909190919091506000820151816000019080519060200190610baf929190611241565b506020820151816001015550506040518060a001604052808481526020018381526020018281526020016008600081548110610bee57610bed6119a9565b5b90600052602060002090600202016001015481526020016008600181548110610c1a57610c196119a9565b5b906000526020600020906002020160010154815250600080820151816000019080519060200190610c4c929190611241565b506020820151816001019080519060200190610c69929190611241565b506040820151816002019080519060200190610c86929190611241565b5060608201518160030155608082015181600401559050506000600584604051610cb09190611c1b565b90815260200160405180910390206000820181600001908054610cd290611a7f565b610cdd9291906111b4565b506001820181600101908054610cf290611a7f565b610cfd9291906111b4565b506002820181600201908054610d1290611a7f565b610d1d9291906111b4565b506003820154816003015560048201548160040155905050505050565b610d426112c7565b600582604051610d529190611c1b565b90815260200160405180910390206040518060a0016040529081600082018054610d7b90611a7f565b80601f0160208091040260200160405190810160405280929190818152602001828054610da790611a7f565b8015610df45780601f10610dc957610100808354040283529160200191610df4565b820191906000526020600020905b815481529060010190602001808311610dd757829003601f168201915b50505050508152602001600182018054610e0d90611a7f565b80601f0160208091040260200160405190810160405280929190818152602001828054610e3990611a7f565b8015610e865780601f10610e5b57610100808354040283529160200191610e86565b820191906000526020600020905b815481529060010190602001808311610e6957829003601f168201915b50505050508152602001600282018054610e9f90611a7f565b80601f0160208091040260200160405190810160405280929190818152602001828054610ecb90611a7f565b8015610f185780601f10610eed57610100808354040283529160200191610f18565b820191906000526020600020905b815481529060010190602001808311610efb57829003601f168201915b50505050508152602001600382015481526020016004820154815250509050919050565b6000806000018054610f4d90611a7f565b80601f0160208091040260200160405190810160405280929190818152602001828054610f7990611a7f565b8015610fc65780601f10610f9b57610100808354040283529160200191610fc6565b820191906000526020600020905b815481529060010190602001808311610fa957829003601f168201915b505050505090806001018054610fdb90611a7f565b80601f016020809104026020016040519081016040528092919081815260200182805461100790611a7f565b80156110545780601f1061102957610100808354040283529160200191611054565b820191906000526020600020905b81548152906001019060200180831161103757829003601f168201915b50505050509080600201805461106990611a7f565b80601f016020809104026020016040519081016040528092919081815260200182805461109590611a7f565b80156110e25780601f106110b7576101008083540402835291602001916110e2565b820191906000526020600020905b8154815290600101906020018083116110c557829003601f168201915b5050505050908060030154908060040154905085565b60606008611104610715565b81548110611115576111146119a9565b5b9060005260206000209060020201600001805461113190611a7f565b80601f016020809104026020016040519081016040528092919081815260200182805461115d90611a7f565b80156111aa5780601f1061117f576101008083540402835291602001916111aa565b820191906000526020600020905b81548152906001019060200180831161118d57829003601f168201915b5050505050905090565b8280546111c090611a7f565b90600052602060002090601f0160209004810192826111e25760008555611230565b82601f106111f35780548555611230565b8280016001018555821561123057600052602060002091601f016020900482015b8281111561122f578254825591600101919060010190611214565b5b50905061123d91906112f6565b5090565b82805461124d90611a7f565b90600052602060002090601f01602090048101928261126f57600085556112b6565b82601f1061128857805160ff19168380011785556112b6565b828001600101855582156112b6579182015b828111156112b557825182559160200191906001019061129a565b5b5090506112c391906112f6565b5090565b6040518060a0016040528060608152602001606081526020016060815260200160008152602001600081525090565b5b8082111561130f5760008160009055506001016112f7565b5090565b6000819050919050565b61132681611313565b82525050565b6000602082019050611341600083018461131d565b92915050565b6000604051905090565b600080fd5b600080fd5b61136481611313565b811461136f57600080fd5b50565b6000813590506113818161135b565b92915050565b60006020828403121561139d5761139c611351565b5b60006113ab84828501611372565b91505092915050565b600081519050919050565b600082825260208201905092915050565b60005b838110156113ee5780820151818401526020810190506113d3565b838111156113fd576000848401525b50505050565b6000601f19601f8301169050919050565b600061141f826113b4565b61142981856113bf565b93506114398185602086016113d0565b61144281611403565b840191505092915050565b600060408201905081810360008301526114678185611414565b9050611476602083018461131d565b9392505050565b600080fd5b600080fd5b7f4e487b7100000000000000000000000000000000000000000000000000000000600052604160045260246000fd5b6114bf82611403565b810181811067ffffffffffffffff821117156114de576114dd611487565b5b80604052505050565b60006114f1611347565b90506114fd82826114b6565b919050565b600067ffffffffffffffff82111561151d5761151c611487565b5b61152682611403565b9050602081019050919050565b82818337600083830152505050565b600061155561155084611502565b6114e7565b90508281526020810184848401111561157157611570611482565b5b61157c848285611533565b509392505050565b600082601f8301126115995761159861147d565b5b81356115a9848260208601611542565b91505092915050565b600080604083850312156115c9576115c8611351565b5b60006115d785828601611372565b925050602083013567ffffffffffffffff8111156115f8576115f7611356565b5b61160485828601611584565b9150509250929050565b600073ffffffffffffffffffffffffffffffffffffffff82169050919050565b60006116398261160e565b9050919050565b6116498161162e565b82525050565b60006020820190506116646000830184611640565b92915050565b6000602082840312156116805761167f611351565b5b600082013567ffffffffffffffff81111561169e5761169d611356565b5b6116aa84828501611584565b91505092915050565b60008115159050919050565b6116c8816116b3565b82525050565b60006020820190506116e360008301846116bf565b92915050565b6116f28161162e565b81146116fd57600080fd5b50565b60008135905061170f816116e9565b92915050565b60006020828403121561172b5761172a611351565b5b600061173984828501611700565b91505092915050565b6000606082019050611757600083018661131d565b61176460208301856116bf565b611771604083018461131d565b949350505050565b60008060006060848603121561179257611791611351565b5b600084013567ffffffffffffffff8111156117b0576117af611356565b5b6117bc86828701611584565b935050602084013567ffffffffffffffff8111156117dd576117dc611356565b5b6117e986828701611584565b925050604084013567ffffffffffffffff81111561180a57611809611356565b5b61181686828701611584565b9150509250925092565b600082825260208201905092915050565b600061183c826113b4565b6118468185611820565b93506118568185602086016113d0565b61185f81611403565b840191505092915050565b61187381611313565b82525050565b600060a08301600083015184820360008601526118968282611831565b915050602083015184820360208601526118b08282611831565b915050604083015184820360408601526118ca8282611831565b91505060608301516118df606086018261186a565b5060808301516118f2608086018261186a565b508091505092915050565b600060208201905081810360008301526119178184611879565b905092915050565b600060a08201905081810360008301526119398188611414565b9050818103602083015261194d8187611414565b905081810360408301526119618186611414565b9050611970606083018561131d565b61197d608083018461131d565b9695505050505050565b600060208201905081810360008301526119a18184611414565b905092915050565b7f4e487b7100000000000000000000000000000000000000000000000000000000600052603260045260246000fd5b7f4e487b7100000000000000000000000000000000000000000000000000000000600052601160045260246000fd5b6000611a1282611313565b91507fffffffffffffffffffffffffffffffffffffffffffffffffffffffffffffffff821415611a4557611a446119d8565b5b600182019050919050565b7f4e487b7100000000000000000000000000000000000000000000000000000000600052602260045260246000fd5b60006002820490506001821680611a9757607f821691505b60208210811415611aab57611aaa611a50565b5b50919050565b7f486173206e6f20726967687420746f20766f7465000000000000000000000000600082015250565b6000611ae76014836113bf565b9150611af282611ab1565b602082019050919050565b60006020820190508181036000830152611b1681611ada565b9050919050565b7f416c726561647920766f7465642e000000000000000000000000000000000000600082015250565b6000611b53600e836113bf565b9150611b5e82611b1d565b602082019050919050565b60006020820190508181036000830152611b8281611b46565b9050919050565b6000611b9482611313565b9150611b9f83611313565b9250827fffffffffffffffffffffffffffffffffffffffffffffffffffffffffffffffff03821115611bd457611bd36119d8565b5b828201905092915050565b600081905092915050565b6000611bf5826113b4565b611bff8185611bdf565b9350611c0f8185602086016113d0565b80840191505092915050565b6000611c278284611bea565b915081905092915050565b7f4f6e6c79206368616972706572736f6e2063616e20676976652072696768742060008201527f746f20766f74652e000000000000000000000000000000000000000000000000602082015250565b6000611c8e6028836113bf565b9150611c9982611c32565b604082019050919050565b60006020820190508181036000830152611cbd81611c81565b9050919050565b7f54686520766f74657220616c726561647920766f7465642e0000000000000000600082015250565b6000611cfa6018836113bf565b9150611d0582611cc4565b602082019050919050565b60006020820190508181036000830152611d2981611ced565b9050919050565b7f4769766520612064616d6e206e616d6500000000000000000000000000000000600082015250565b6000611d666010836113bf565b9150611d7182611d30565b602082019050919050565b60006020820190508181036000830152611d9581611d59565b905091905056fea2646970667358221220a89e5a3f10e356b147a358590e143958ddd75852e56b96fbebb1f5e6404959d264736f6c634300080b0033",
  "immutableReferences": {},
  "source": "// SPDX-License-Identifier: GPL-3.0\r\n\r\npragma solidity >=0.7.0 <0.9.0;\r\n\r\n  \r\ncontract Ballot {\r\n   \r\n    struct Voter {\r\n        uint weight; \r\n        bool voted;  \r\n        uint vote;   \r\n    }\r\n    \r\n    struct Proposal {\r\n        \r\n        string name;   \r\n        uint voteCount; \r\n    }\r\n\r\n    struct FinalData{\r\n        string proposalId;\r\n        string candidateName;\r\n        string proposalFile;\r\n        uint yesCount;\r\n        uint noCount;\r\n    }\r\n\r\n\r\n    FinalData public finalData;\r\n\r\n    mapping(string => FinalData) data;\r\n\r\n    address public chairperson;\r\n\r\n    mapping(address => Voter) public voters;\r\n\r\n    Proposal[] public proposals;\r\n\r\n    \r\n    constructor() {\r\n        \r\n    }\r\n\r\n    function addProposal(string memory proposalId, string memory proposalName, string memory proposalFile) public {\r\n        require(bytes(proposalName).length != 0 , \"Give a damn name\");\r\n        chairperson = msg.sender;\r\n        voters[chairperson].weight = 1;\r\n        proposals.push(Proposal({name: \"Yes\",voteCount: 0}));\r\n        proposals.push(Proposal({name: \"No\",voteCount: 0}));\r\n        finalData = FinalData(proposalId, proposalName,proposalFile, proposals[0].voteCount, proposals[1].voteCount);\r\n        data[proposalId] = finalData;\r\n    }\r\n\r\n    function getData(string memory id) public view returns (FinalData memory someData){\r\n        someData = data[id];\r\n    }\r\n    \r\n    \r\n    function giveRightToVote(address voter) public {\r\n        require(\r\n            msg.sender == chairperson,\r\n            \"Only chairperson can give right to vote.\"\r\n        );\r\n        require(\r\n            !voters[voter].voted,\r\n            \"The voter already voted.\"\r\n        );\r\n        require(voters[voter].weight == 0);\r\n        voters[voter].weight = 1;\r\n    }\r\n\r\n   \r\n\r\n    \r\n    function vote(uint proposal, string memory id) public {\r\n        Voter storage sender = voters[msg.sender];\r\n        require(sender.weight != 0, \"Has no right to vote\");\r\n        require(!sender.voted, \"Already voted.\");\r\n        sender.voted = true;\r\n        sender.vote = proposal;\r\n\r\n        \r\n        proposals[proposal].voteCount += sender.weight;\r\n        if(proposal == 0){\r\n        finalData.yesCount = proposals[proposal].voteCount;\r\n        data[id] = finalData;\r\n        }else{\r\n            finalData.noCount = proposals[proposal].voteCount;\r\n            data[id] = finalData;\r\n        } \r\n    }\r\n\r\n    \r\n    function winningProposal() public view\r\n            returns (uint winningProposal_)\r\n    {\r\n        uint winningVoteCount = 0;\r\n        for (uint p = 0; p < proposals.length; p++) {\r\n            if (proposals[p].voteCount > winningVoteCount) {\r\n                winningVoteCount = proposals[p].voteCount;\r\n                winningProposal_ = p;\r\n            }\r\n        }\r\n    }\r\n\r\n    function voteResult() public view\r\n            returns (uint winningProposal_)\r\n    {\r\n        uint winningVoteCount = 0;\r\n        for (uint p = 0; p < proposals.length; p++) {\r\n            if (proposals[p].voteCount > winningVoteCount) {\r\n                winningVoteCount = proposals[p].voteCount;\r\n                winningProposal_ = p;\r\n            }\r\n        }\r\n    }\r\n\r\n    function voteResults(string memory id) public view\r\n            returns (bool result)\r\n    {\r\n        if(data[id].yesCount > data[id].noCount){\r\n            result = true;\r\n        }\r\n        else{\r\n            result = false;\r\n        }\r\n    }\r\n\r\n    \r\n    function winnerName() public view\r\n            returns (string memory winnerName_)\r\n    {\r\n        winnerName_ = proposals[winningProposal()].name;\r\n    }\r\n}\r\n",
  "sourcePath": "C:\\Users\\colin\\OneDrive\\Desktop\\projects\\mini_project_sem3\\final_frontend\\src\\contracts\\Ballot.sol",
  "compiler": {
    "name": "solc",
    "version": "0.8.11+commit.d7f03943.Emscripten.clang"
  },
  "schemaVersion": "3.4.4",
  "updatedAt": "2022-04-29T22:05:17.258Z",
  "networkType": "ethereum",
  "devdoc": {
    "kind": "dev",
    "methods": {},
    "version": 1
  },
  "userdoc": {
    "kind": "user",
    "methods": {},
    "version": 1
  }
}