{
  "contractName": "Escrow",
  "abi": [
    {
      "inputs": [],
      "stateMutability": "nonpayable",
      "type": "constructor"
    },
    {
      "inputs": [
        {
          "internalType": "address",
          "name": "",
          "type": "address"
        }
      ],
      "name": "balance",
      "outputs": [
        {
          "internalType": "uint256",
          "name": "",
          "type": "uint256"
        }
      ],
      "stateMutability": "view",
      "type": "function",
      "constant": true
    },
    {
      "inputs": [
        {
          "internalType": "address",
          "name": "",
          "type": "address"
        }
      ],
      "name": "deposits",
      "outputs": [
        {
          "internalType": "uint256",
          "name": "",
          "type": "uint256"
        }
      ],
      "stateMutability": "view",
      "type": "function",
      "constant": true
    },
    {
      "inputs": [],
      "name": "payment",
      "outputs": [
        {
          "internalType": "uint256",
          "name": "",
          "type": "uint256"
        }
      ],
      "stateMutability": "view",
      "type": "function",
      "constant": true
    },
    {
      "inputs": [],
      "name": "value",
      "outputs": [
        {
          "internalType": "uint256",
          "name": "",
          "type": "uint256"
        }
      ],
      "stateMutability": "view",
      "type": "function",
      "constant": true
    },
    {
      "inputs": [
        {
          "internalType": "address",
          "name": "payee",
          "type": "address"
        }
      ],
      "name": "deposit",
      "outputs": [],
      "stateMutability": "payable",
      "type": "function",
      "payable": true
    },
    {
      "inputs": [
        {
          "internalType": "address payable",
          "name": "payee",
          "type": "address"
        },
        {
          "internalType": "uint256",
          "name": "percent",
          "type": "uint256"
        }
      ],
      "name": "withdraw",
      "outputs": [],
      "stateMutability": "nonpayable",
      "type": "function"
    }
  ],
  "bytecode": "0x608060405260006001553460025534801561001957600080fd5b50336000806101000a81548173ffffffffffffffffffffffffffffffffffffffff021916908373ffffffffffffffffffffffffffffffffffffffff1602179055506107ce806100696000396000f3fe6080604052600436106100555760003560e01c80633fa4f2451461005a57806342f6487a14610085578063e3d670d7146100b0578063f340fa01146100ed578063f3fef3a314610109578063fc7e286d14610132575b600080fd5b34801561006657600080fd5b5061006f61016f565b60405161007c91906104d0565b60405180910390f35b34801561009157600080fd5b5061009a610175565b6040516100a791906104d0565b60405180910390f35b3480156100bc57600080fd5b506100d760048036038101906100d2919061054e565b61017b565b6040516100e491906104d0565b60405180910390f35b6101076004803603810190610102919061054e565b610193565b005b34801561011557600080fd5b50610130600480360381019061012b91906105e5565b610305565b005b34801561013e57600080fd5b506101596004803603810190610154919061054e565b61049f565b60405161016691906104d0565b60405180910390f35b60025481565b60015481565b60046020528060005260406000206000915090505481565b60008054906101000a900473ffffffffffffffffffffffffffffffffffffffff1673ffffffffffffffffffffffffffffffffffffffff163373ffffffffffffffffffffffffffffffffffffffff16146101eb57600080fd5b600034905080600360008473ffffffffffffffffffffffffffffffffffffffff1673ffffffffffffffffffffffffffffffffffffffff1681526020019081526020016000205461023b9190610654565b600360008473ffffffffffffffffffffffffffffffffffffffff1673ffffffffffffffffffffffffffffffffffffffff16815260200190815260200160002081905550600360008373ffffffffffffffffffffffffffffffffffffffff1673ffffffffffffffffffffffffffffffffffffffff16815260200190815260200160002054600460008473ffffffffffffffffffffffffffffffffffffffff1673ffffffffffffffffffffffffffffffffffffffff168152602001908152602001600020819055505050565b60008054906101000a900473ffffffffffffffffffffffffffffffffffffffff1673ffffffffffffffffffffffffffffffffffffffff163373ffffffffffffffffffffffffffffffffffffffff161461035d57600080fd5b6000600181905550606481600360008573ffffffffffffffffffffffffffffffffffffffff1673ffffffffffffffffffffffffffffffffffffffff168152602001908152602001600020546103b291906106aa565b6103bc9190610733565b6001819055508173ffffffffffffffffffffffffffffffffffffffff166108fc6001549081150290604051600060405180830381858888f1935050505015801561040a573d6000803e3d6000fd5b50600154600360008473ffffffffffffffffffffffffffffffffffffffff1673ffffffffffffffffffffffffffffffffffffffff168152602001908152602001600020546104589190610764565b600460008473ffffffffffffffffffffffffffffffffffffffff1673ffffffffffffffffffffffffffffffffffffffff168152602001908152602001600020819055505050565b60036020528060005260406000206000915090505481565b6000819050919050565b6104ca816104b7565b82525050565b60006020820190506104e560008301846104c1565b92915050565b600080fd5b600073ffffffffffffffffffffffffffffffffffffffff82169050919050565b600061051b826104f0565b9050919050565b61052b81610510565b811461053657600080fd5b50565b60008135905061054881610522565b92915050565b600060208284031215610564576105636104eb565b5b600061057284828501610539565b91505092915050565b6000610586826104f0565b9050919050565b6105968161057b565b81146105a157600080fd5b50565b6000813590506105b38161058d565b92915050565b6105c2816104b7565b81146105cd57600080fd5b50565b6000813590506105df816105b9565b92915050565b600080604083850312156105fc576105fb6104eb565b5b600061060a858286016105a4565b925050602061061b858286016105d0565b9150509250929050565b7f4e487b7100000000000000000000000000000000000000000000000000000000600052601160045260246000fd5b600061065f826104b7565b915061066a836104b7565b9250827fffffffffffffffffffffffffffffffffffffffffffffffffffffffffffffffff0382111561069f5761069e610625565b5b828201905092915050565b60006106b5826104b7565b91506106c0836104b7565b9250817fffffffffffffffffffffffffffffffffffffffffffffffffffffffffffffffff04831182151516156106f9576106f8610625565b5b828202905092915050565b7f4e487b7100000000000000000000000000000000000000000000000000000000600052601260045260246000fd5b600061073e826104b7565b9150610749836104b7565b92508261075957610758610704565b5b828204905092915050565b600061076f826104b7565b915061077a836104b7565b92508282101561078d5761078c610625565b5b82820390509291505056fea26469706673582212201385f87603d007b975f3bb09f0563d7ed4d14897369685e5fdf4c211b542424264736f6c634300080b0033",
  "immutableReferences": {},
  "source": "// SPDX-License-Identifier: GPL-3.0\r\n\r\npragma solidity >=0.7.0 <0.9.0;\r\n\r\ncontract Escrow {\r\n\r\n  address agent;\r\n  uint256 public payment = 0;\r\n  uint256 public value = msg.value; \r\n  mapping(address => uint256) public deposits;\r\n  mapping(address => uint256) public balance;\r\n  \r\n  \r\n\r\n  modifier onlyAgent() {\r\n      require(msg.sender == agent);\r\n       _;\r\n    }\r\n\r\n  constructor () {\r\n      agent = msg.sender;\r\n    }\r\n\r\n    function deposit(address payee) public onlyAgent payable {\r\n        uint256 amount = msg.value;\r\n        deposits[payee] = deposits[payee] + amount;\r\n        balance [payee] = deposits[payee];\r\n\r\n    }\r\n\r\n    function withdraw(address payable payee ,uint256 percent ) public onlyAgent {\r\n        payment = 0;\r\n        payment= deposits[payee]*percent/100;\r\n        payee.transfer(payment);\r\n        balance [payee] = deposits[payee] - payment;\r\n        \r\n    }\r\n\r\n}",
  "sourcePath": "C:\\Users\\colin\\OneDrive\\Desktop\\projects\\mini_project_sem3\\frontend2\\market3\\src\\contracts\\Escrow.sol",
  "compiler": {
    "name": "solc",
    "version": "0.8.11+commit.d7f03943.Emscripten.clang"
  },
  "schemaVersion": "3.4.4",
  "updatedAt": "2022-04-04T08:45:14.756Z",
  "networkType": "ethereum",
  "devdoc": {
    "kind": "dev",
    "methods": {},
    "version": 1
  },
  "userdoc": {
    "kind": "user",
    "methods": {},
    "version": 1
  }
}